{
  "contractName": "Election",
  "abi": [
    {
      "constant": true,
      "inputs": [],
      "name": "candidatesCount",
      "outputs": [
        {
          "name": "",
          "type": "uint256"
        }
      ],
      "payable": false,
      "stateMutability": "view",
      "type": "function",
      "signature": "0x2d35a8a2"
    },
    {
      "constant": true,
      "inputs": [
        {
          "name": "",
          "type": "uint256"
        }
      ],
      "name": "candidates",
      "outputs": [
        {
          "name": "id",
          "type": "uint256"
        },
        {
          "name": "name",
          "type": "string"
        },
        {
          "name": "voteCount",
          "type": "uint256"
        }
      ],
      "payable": false,
      "stateMutability": "view",
      "type": "function",
      "signature": "0x3477ee2e"
    },
    {
      "constant": true,
      "inputs": [
        {
          "name": "",
          "type": "address"
        }
      ],
      "name": "existVoters",
      "outputs": [
        {
          "name": "",
          "type": "bool"
        }
      ],
      "payable": false,
      "stateMutability": "view",
      "type": "function",
      "signature": "0x88b5ffaf"
    },
    {
      "constant": true,
      "inputs": [
        {
          "name": "",
          "type": "address"
        }
      ],
      "name": "voters",
      "outputs": [
        {
          "name": "",
          "type": "bool"
        }
      ],
      "payable": false,
      "stateMutability": "view",
      "type": "function",
      "signature": "0xa3ec138d"
    },
    {
      "constant": true,
      "inputs": [],
      "name": "administrator",
      "outputs": [
        {
          "name": "",
          "type": "address"
        }
      ],
      "payable": false,
      "stateMutability": "view",
      "type": "function",
      "signature": "0xf53d0a8e"
    },
    {
      "inputs": [
        {
          "name": "candidateName",
          "type": "string[]"
        }
      ],
      "payable": false,
      "stateMutability": "nonpayable",
      "type": "constructor",
      "signature": "constructor"
    },
    {
      "anonymous": false,
      "inputs": [
        {
          "indexed": true,
          "name": "_candidateId",
          "type": "uint256"
        }
      ],
      "name": "votedEvent",
      "type": "event",
      "signature": "0xfff3c900d938d21d0990d786e819f29b8d05c1ef587b462b939609625b684b16"
    },
    {
      "anonymous": false,
      "inputs": [],
      "name": "loginSuccessEvent",
      "type": "event",
      "signature": "0xbdd81fa4b801b8ff1e3c4272e62827f12a9639a42a1fea4603bbce9b844c89f4"
    },
    {
      "constant": false,
      "inputs": [
        {
          "name": "_hashpwd",
          "type": "string"
        }
      ],
      "name": "login",
      "outputs": [],
      "payable": false,
      "stateMutability": "nonpayable",
      "type": "function",
      "signature": "0x3a7d280c"
    },
    {
      "constant": false,
      "inputs": [
        {
          "name": "addr",
          "type": "address"
        },
        {
          "name": "_hashpwd",
          "type": "string"
        }
      ],
      "name": "addVoter",
      "outputs": [],
      "payable": false,
      "stateMutability": "nonpayable",
      "type": "function",
      "signature": "0xd9e95a98"
    },
    {
      "constant": false,
      "inputs": [
        {
          "name": "_candidateId",
          "type": "uint256"
        }
      ],
      "name": "vote",
      "outputs": [],
      "payable": false,
      "stateMutability": "nonpayable",
      "type": "function",
      "signature": "0x0121b93f"
    }
  ],
  "bytecode": "0x60806040523480156200001157600080fd5b5060405162001001380380620010018339810180604052620000379190810190620002b5565b8051600581905550336000806101000a81548173ffffffffffffffffffffffffffffffffffffffff021916908373ffffffffffffffffffffffffffffffffffffffff16021790555060008090505b815181101562000121576060604051908101604052806001830181526020018383815181101515620000b357fe5b9060200190602002015181526020016000815250600460006001840181526020019081526020016000206000820151816000015560208201518160010190805190602001906200010592919062000129565b5060408201518160020155905050808060010191505062000085565b5050620003b4565b828054600181600116156101000203166002900490600052602060002090601f016020900481019282601f106200016c57805160ff19168380011785556200019d565b828001600101855582156200019d579182015b828111156200019c5782518255916020019190600101906200017f565b5b509050620001ac9190620001b0565b5090565b620001d591905b80821115620001d1576000816000905550600101620001b7565b5090565b90565b600082601f8301121515620001ec57600080fd5b815162000203620001fd8262000328565b620002fa565b9150818183526020840193506020810190508360005b838110156200024d578151860162000232888262000257565b84526020840193506020830192505060018101905062000219565b5050505092915050565b600082601f83011215156200026b57600080fd5b8151620002826200027c8262000351565b620002fa565b915080825260208301602083018583830111156200029f57600080fd5b620002ac8382846200037e565b50505092915050565b600060208284031215620002c857600080fd5b600082015167ffffffffffffffff811115620002e357600080fd5b620002f184828501620001d8565b91505092915050565b6000604051905081810181811067ffffffffffffffff821117156200031e57600080fd5b8060405250919050565b600067ffffffffffffffff8211156200034057600080fd5b602082029050602081019050919050565b600067ffffffffffffffff8211156200036957600080fd5b601f19601f8301169050602081019050919050565b60005b838110156200039e57808201518184015260208101905062000381565b83811115620003ae576000848401525b50505050565b610c3d80620003c46000396000f3fe60806040526004361061008e576000357c0100000000000000000000000000000000000000000000000000000000900463ffffffff1680630121b93f146100935780632d35a8a2146100bc5780633477ee2e146100e75780633a7d280c1461012657806388b5ffaf1461014f578063a3ec138d1461018c578063d9e95a98146101c9578063f53d0a8e146101f2575b600080fd5b34801561009f57600080fd5b506100ba60048036036100b591908101906109cd565b61021d565b005b3480156100c857600080fd5b506100d1610399565b6040516100de9190610a8f565b60405180910390f35b3480156100f357600080fd5b5061010e600480360361010991908101906109cd565b61039f565b60405161011d93929190610aaa565b60405180910390f35b34801561013257600080fd5b5061014d6004803603610148919081019061098c565b610461565b005b34801561015b57600080fd5b506101766004803603610171919081019061090f565b6105a6565b6040516101839190610a74565b60405180910390f35b34801561019857600080fd5b506101b360048036036101ae919081019061090f565b6105c6565b6040516101c09190610a74565b60405180910390f35b3480156101d557600080fd5b506101f060048036036101eb9190810190610938565b6105e6565b005b3480156101fe57600080fd5b506102076107c7565b6040516102149190610a59565b60405180910390f35b600260003373ffffffffffffffffffffffffffffffffffffffff1673ffffffffffffffffffffffffffffffffffffffff16815260200190815260200160002060009054906101000a900460ff16151561027557600080fd5b600360003373ffffffffffffffffffffffffffffffffffffffff1673ffffffffffffffffffffffffffffffffffffffff16815260200190815260200160002060009054906101000a900460ff161515156102ce57600080fd5b6000811180156102e057506005548111155b15156102eb57600080fd5b6001600360003373ffffffffffffffffffffffffffffffffffffffff1673ffffffffffffffffffffffffffffffffffffffff16815260200190815260200160002060006101000a81548160ff0219169083151502179055506004600082815260200190815260200160002060020160008154809291906001019190505550807ffff3c900d938d21d0990d786e819f29b8d05c1ef587b462b939609625b684b1660405160405180910390a250565b60055481565b6004602052806000526040600020600091509050806000015490806001018054600181600116156101000203166002900480601f0160208091040260200160405190810160405280929190818152602001828054600181600116156101000203166002900480156104515780601f1061042657610100808354040283529160200191610451565b820191906000526020600020905b81548152906001019060200180831161043457829003601f168201915b5050505050908060020154905083565b600260003373ffffffffffffffffffffffffffffffffffffffff1673ffffffffffffffffffffffffffffffffffffffff16815260200190815260200160002060009054906101000a900460ff1615156104b957600080fd5b600160003373ffffffffffffffffffffffffffffffffffffffff1673ffffffffffffffffffffffffffffffffffffffff16815260200190815260200160002060010160405180828054600181600116156101000203166002900480156105565780601f10610534576101008083540402835291820191610556565b820191906000526020600020905b815481529060010190602001808311610542575b50509150506040518091039020818051906020012014151561057757600080fd5b7fbdd81fa4b801b8ff1e3c4272e62827f12a9639a42a1fea4603bbce9b844c89f460405160405180910390a150565b60026020528060005260406000206000915054906101000a900460ff1681565b60036020528060005260406000206000915054906101000a900460ff1681565b6000809054906101000a900473ffffffffffffffffffffffffffffffffffffffff1673ffffffffffffffffffffffffffffffffffffffff163373ffffffffffffffffffffffffffffffffffffffff1614151561064157600080fd5b600260008373ffffffffffffffffffffffffffffffffffffffff1673ffffffffffffffffffffffffffffffffffffffff16815260200190815260200160002060009054906101000a900460ff1615151561069a57600080fd5b60408051908101604052808373ffffffffffffffffffffffffffffffffffffffff16815260200182815250600160008473ffffffffffffffffffffffffffffffffffffffff1673ffffffffffffffffffffffffffffffffffffffff16815260200190815260200160002060008201518160000160006101000a81548173ffffffffffffffffffffffffffffffffffffffff021916908373ffffffffffffffffffffffffffffffffffffffff16021790555060208201518160010190805190602001906107679291906107ec565b509050506001600260008473ffffffffffffffffffffffffffffffffffffffff1673ffffffffffffffffffffffffffffffffffffffff16815260200190815260200160002060006101000a81548160ff0219169083151502179055505050565b6000809054906101000a900473ffffffffffffffffffffffffffffffffffffffff1681565b828054600181600116156101000203166002900490600052602060002090601f016020900481019282601f1061082d57805160ff191683800117855561085b565b8280016001018555821561085b579182015b8281111561085a57825182559160200191906001019061083f565b5b509050610868919061086c565b5090565b61088e91905b8082111561088a576000816000905550600101610872565b5090565b90565b600061089d8235610b94565b905092915050565b600082601f83011215156108b857600080fd5b81356108cb6108c682610b15565b610ae8565b915080825260208301602083018583830111156108e757600080fd5b6108f2838284610bb0565b50505092915050565b60006109078235610ba6565b905092915050565b60006020828403121561092157600080fd5b600061092f84828501610891565b91505092915050565b6000806040838503121561094b57600080fd5b600061095985828601610891565b925050602083013567ffffffffffffffff81111561097657600080fd5b610982858286016108a5565b9150509250929050565b60006020828403121561099e57600080fd5b600082013567ffffffffffffffff8111156109b857600080fd5b6109c4848285016108a5565b91505092915050565b6000602082840312156109df57600080fd5b60006109ed848285016108fb565b91505092915050565b6109ff81610b4c565b82525050565b610a0e81610b5e565b82525050565b6000610a1f82610b41565b808452610a33816020860160208601610bbf565b610a3c81610bf2565b602085010191505092915050565b610a5381610b8a565b82525050565b6000602082019050610a6e60008301846109f6565b92915050565b6000602082019050610a896000830184610a05565b92915050565b6000602082019050610aa46000830184610a4a565b92915050565b6000606082019050610abf6000830186610a4a565b8181036020830152610ad18185610a14565b9050610ae06040830184610a4a565b949350505050565b6000604051905081810181811067ffffffffffffffff82111715610b0b57600080fd5b8060405250919050565b600067ffffffffffffffff821115610b2c57600080fd5b601f19601f8301169050602081019050919050565b600081519050919050565b6000610b5782610b6a565b9050919050565b60008115159050919050565b600073ffffffffffffffffffffffffffffffffffffffff82169050919050565b6000819050919050565b6000610b9f82610b6a565b9050919050565b6000819050919050565b82818337600083830152505050565b60005b83811015610bdd578082015181840152602081019050610bc2565b83811115610bec576000848401525b50505050565b6000601f19601f830116905091905056fea265627a7a7230582001cf9ed5453be184ba23054de796af287a74a0c0f5e090babe843a026a5742c76c6578706572696d656e74616cf50037",
  "source": "pragma solidity ^0.5.0;\npragma experimental ABIEncoderV2;\n\ncontract DateTime{\n    function getYear(uint timestamp) public pure returns (uint16);\n    function getMonth(uint timestamp) public pure returns (uint8);\n    function getDay(uint timestamp) public pure returns (uint8);\n}\n\n\ncontract Election {\n    // Model a Candidate\n\n    address public administrator;\n    struct Candidate {\n        uint id;\n        string name;\n        uint voteCount;\n    }\n\n    struct AuthenticatedVoter{\n        address add;\n        string hashedPWD;\n    }\n\n    \n    // Store address that have be authenticated\n    mapping(address => AuthenticatedVoter) private authenticatvoters; \n    // Store addresses that have been created\n    mapping(address => bool) public existVoters;\n    // Store accounts that have voted\n    mapping(address => bool) public voters;\n    // Store Candidates\n    // Fetch Candidate\n    mapping(uint => Candidate) public candidates;\n    // Store Candidates Count\n    uint public candidatesCount;\n\n    // voted event\n    event votedEvent (\n        uint indexed _candidateId\n    );\n\n    event loginSuccessEvent();\n\n\n    constructor (string[] memory candidateName) public {\n        candidatesCount = candidateName.length;\n        administrator = msg.sender;\n        // how to set the date for the voting\n\n        for(uint i=0;i<candidateName.length;i++)\n            candidates[i+1] = Candidate(i+1, candidateName[i], 0);\n    }\n\n    function login(string memory _hashpwd) public\n    {\n        require(existVoters[msg.sender]);\n    \n        require(keccak256(bytes(_hashpwd)) == keccak256(bytes(authenticatvoters[msg.sender].hashedPWD)));\n\n        // redirect to main page;\n        emit loginSuccessEvent();\n    }\n\n    function addVoter(address addr,string memory _hashpwd) public\n    {\n        require(msg.sender == administrator);\n        require(!existVoters[addr]);\n\n        authenticatvoters[addr] = AuthenticatedVoter(addr,_hashpwd);\n        existVoters[addr] = true;\n    }\n\n    function addCandidate (string memory _name) private {\n        candidatesCount ++;\n        candidates[candidatesCount] = Candidate(candidatesCount, _name, 0);\n    }\n\n    // let the authenticated user to vote.\n    function vote (uint _candidateId) public {\n        \n        require(existVoters[msg.sender]);\n\n        // require that they haven't voted before\n        require(!voters[msg.sender]);\n\n        // require a valid candidate\n        require(_candidateId > 0 && _candidateId <= candidatesCount);\n\n        // record that voter has voted\n        voters[msg.sender] = true;\n\n        // update candidate vote Count\n        candidates[_candidateId].voteCount ++;\n\n        // trigger voted event\n        emit votedEvent(_candidateId);\n    }\n}\n",
  "sourcePath": "/root/election-4-watch-events/contracts/Election.sol",
  "compiler": {
    "name": "solc",
    "version": "0.5.0+commit.1d4f565a.Emscripten.clang"
  },
  "schemaVersion": "3.0.2",
  "updatedAt": "2019-02-20T05:49:54.298Z",
  "devdoc": {
    "methods": {}
  },
  "userdoc": {
    "methods": {}
  }
}